:04000000B8EF3FF026
:107F6000D388D38AD38C120093989480819812007E
:107F7000076A066A0001D0EF3FF0046A056A09D07B
:107F8000030E036E980EE82EFED7032EFCD7044A8C
:107F9000052A0150045C02500558D8B01200F0D7F1
:107FA000B0EC3FF0B4EC3FF012D082B010D0026AD7
:107FB000640E016EBDEC3FF082B009D0026A640E1F
:107FC000016EBDEC3FF08188076A010E066E075016
:107FD000061012E1EAD782B00FD0026A640E016E79
:107FE000BDEC3FF082B008D0026A640E016EBDECB9
:107FF0003FF08198066A076A06040710E8E1EBD7AC
:020000040020DA
:08000000FFFFFFFFFFFFFFFF00
:020000040030CA
:0E000000FF081F1EFF8385FF0FC00FE00F409B
:00000001FF
